{
  "contractName": "Kitty",
  "abi": [
    {
      "inputs": [],
      "stateMutability": "nonpayable",
      "type": "constructor"
    },
    {
      "anonymous": false,
      "inputs": [
        {
          "indexed": true,
          "internalType": "address",
          "name": "owner",
          "type": "address"
        },
        {
          "indexed": true,
          "internalType": "address",
          "name": "approved",
          "type": "address"
        },
        {
          "indexed": true,
          "internalType": "uint256",
          "name": "tokenId",
          "type": "uint256"
        }
      ],
      "name": "Approval",
      "type": "event"
    },
    {
      "anonymous": false,
      "inputs": [
        {
          "indexed": true,
          "internalType": "address",
          "name": "owner",
          "type": "address"
        },
        {
          "indexed": true,
          "internalType": "address",
          "name": "operator",
          "type": "address"
        },
        {
          "indexed": false,
          "internalType": "bool",
          "name": "approved",
          "type": "bool"
        }
      ],
      "name": "ApprovalForAll",
      "type": "event"
    },
    {
      "anonymous": false,
      "inputs": [
        {
          "indexed": false,
          "internalType": "address",
          "name": "_owner",
          "type": "address"
        },
        {
          "indexed": false,
          "internalType": "uint256",
          "name": "kittenId",
          "type": "uint256"
        },
        {
          "indexed": false,
          "internalType": "uint256",
          "name": "mumId",
          "type": "uint256"
        },
        {
          "indexed": false,
          "internalType": "uint256",
          "name": "dadId",
          "type": "uint256"
        },
        {
          "indexed": false,
          "internalType": "uint256",
          "name": "genes",
          "type": "uint256"
        }
      ],
      "name": "Birth",
      "type": "event"
    },
    {
      "anonymous": false,
      "inputs": [
        {
          "indexed": true,
          "internalType": "address",
          "name": "from",
          "type": "address"
        },
        {
          "indexed": true,
          "internalType": "address",
          "name": "to",
          "type": "address"
        },
        {
          "indexed": true,
          "internalType": "uint256",
          "name": "tokenId",
          "type": "uint256"
        }
      ],
      "name": "Transfer",
      "type": "event"
    },
    {
      "inputs": [],
      "name": "_name",
      "outputs": [
        {
          "internalType": "string",
          "name": "",
          "type": "string"
        }
      ],
      "stateMutability": "view",
      "type": "function",
      "constant": true
    },
    {
      "inputs": [],
      "name": "_symbol",
      "outputs": [
        {
          "internalType": "string",
          "name": "",
          "type": "string"
        }
      ],
      "stateMutability": "view",
      "type": "function",
      "constant": true
    },
    {
      "inputs": [],
      "name": "gen0Amount",
      "outputs": [
        {
          "internalType": "uint256",
          "name": "",
          "type": "uint256"
        }
      ],
      "stateMutability": "view",
      "type": "function",
      "constant": true
    },
    {
      "inputs": [],
      "name": "gen0Limit",
      "outputs": [
        {
          "internalType": "uint256",
          "name": "",
          "type": "uint256"
        }
      ],
      "stateMutability": "view",
      "type": "function",
      "constant": true
    },
    {
      "inputs": [
        {
          "internalType": "uint256",
          "name": "",
          "type": "uint256"
        }
      ],
      "name": "kitties",
      "outputs": [
        {
          "internalType": "uint256",
          "name": "genes",
          "type": "uint256"
        },
        {
          "internalType": "uint64",
          "name": "birthTime",
          "type": "uint64"
        },
        {
          "internalType": "uint32",
          "name": "mumID",
          "type": "uint32"
        },
        {
          "internalType": "uint32",
          "name": "dadID",
          "type": "uint32"
        },
        {
          "internalType": "uint16",
          "name": "generation",
          "type": "uint16"
        }
      ],
      "stateMutability": "view",
      "type": "function",
      "constant": true
    },
    {
      "inputs": [
        {
          "internalType": "uint256",
          "name": "",
          "type": "uint256"
        }
      ],
      "name": "kittyIndexToApproved",
      "outputs": [
        {
          "internalType": "address",
          "name": "",
          "type": "address"
        }
      ],
      "stateMutability": "view",
      "type": "function",
      "constant": true
    },
    {
      "inputs": [
        {
          "internalType": "address",
          "name": "_owner",
          "type": "address"
        },
        {
          "internalType": "uint256",
          "name": "_tokenId",
          "type": "uint256"
        }
      ],
      "name": "isOwner",
      "outputs": [
        {
          "internalType": "bool",
          "name": "",
          "type": "bool"
        }
      ],
      "stateMutability": "view",
      "type": "function",
      "constant": true
    },
    {
      "inputs": [
        {
          "internalType": "bytes4",
          "name": "_interfaceId",
          "type": "bytes4"
        }
      ],
      "name": "supportsInterface",
      "outputs": [
        {
          "internalType": "bool",
          "name": "",
          "type": "bool"
        }
      ],
      "stateMutability": "pure",
      "type": "function",
      "constant": true
    },
    {
      "inputs": [
        {
          "internalType": "address",
          "name": "_approved",
          "type": "address"
        },
        {
          "internalType": "uint256",
          "name": "_tokenId",
          "type": "uint256"
        }
      ],
      "name": "approve",
      "outputs": [],
      "stateMutability": "nonpayable",
      "type": "function"
    },
    {
      "inputs": [
        {
          "internalType": "address",
          "name": "_operator",
          "type": "address"
        },
        {
          "internalType": "bool",
          "name": "_approved",
          "type": "bool"
        }
      ],
      "name": "setApprovalForAll",
      "outputs": [],
      "stateMutability": "nonpayable",
      "type": "function"
    },
    {
      "inputs": [
        {
          "internalType": "uint256",
          "name": "_tokenId",
          "type": "uint256"
        }
      ],
      "name": "getApproved",
      "outputs": [
        {
          "internalType": "address",
          "name": "",
          "type": "address"
        }
      ],
      "stateMutability": "view",
      "type": "function",
      "constant": true
    },
    {
      "inputs": [
        {
          "internalType": "address",
          "name": "_owner",
          "type": "address"
        },
        {
          "internalType": "address",
          "name": "_operator",
          "type": "address"
        }
      ],
      "name": "isApprovedForAll",
      "outputs": [
        {
          "internalType": "bool",
          "name": "",
          "type": "bool"
        }
      ],
      "stateMutability": "view",
      "type": "function",
      "constant": true
    },
    {
      "inputs": [
        {
          "internalType": "address",
          "name": "_owner",
          "type": "address"
        }
      ],
      "name": "balanceOf",
      "outputs": [
        {
          "internalType": "uint256",
          "name": "balance",
          "type": "uint256"
        }
      ],
      "stateMutability": "view",
      "type": "function",
      "constant": true
    },
    {
      "inputs": [],
      "name": "totalSupply",
      "outputs": [
        {
          "internalType": "uint256",
          "name": "total",
          "type": "uint256"
        }
      ],
      "stateMutability": "view",
      "type": "function",
      "constant": true
    },
    {
      "inputs": [],
      "name": "name",
      "outputs": [
        {
          "internalType": "string",
          "name": "tokenName",
          "type": "string"
        }
      ],
      "stateMutability": "pure",
      "type": "function",
      "constant": true
    },
    {
      "inputs": [],
      "name": "symbol",
      "outputs": [
        {
          "internalType": "string",
          "name": "tokenSymbol",
          "type": "string"
        }
      ],
      "stateMutability": "pure",
      "type": "function",
      "constant": true
    },
    {
      "inputs": [
        {
          "internalType": "uint256",
          "name": "tokenId",
          "type": "uint256"
        }
      ],
      "name": "ownerOf",
      "outputs": [
        {
          "internalType": "address",
          "name": "_owner",
          "type": "address"
        }
      ],
      "stateMutability": "view",
      "type": "function",
      "constant": true
    },
    {
      "inputs": [
        {
          "internalType": "address",
          "name": "to",
          "type": "address"
        },
        {
          "internalType": "uint256",
          "name": "tokenId",
          "type": "uint256"
        }
      ],
      "name": "transfer",
      "outputs": [],
      "stateMutability": "nonpayable",
      "type": "function"
    },
    {
      "inputs": [
        {
          "internalType": "uint256",
          "name": "_dadId",
          "type": "uint256"
        },
        {
          "internalType": "uint256",
          "name": "_mumId",
          "type": "uint256"
        }
      ],
      "name": "breed",
      "outputs": [
        {
          "internalType": "uint256",
          "name": "",
          "type": "uint256"
        }
      ],
      "stateMutability": "nonpayable",
      "type": "function"
    },
    {
      "inputs": [
        {
          "internalType": "uint256",
          "name": "_genes",
          "type": "uint256"
        }
      ],
      "name": "createKittyGen0",
      "outputs": [
        {
          "internalType": "uint256",
          "name": "",
          "type": "uint256"
        }
      ],
      "stateMutability": "nonpayable",
      "type": "function"
    },
    {
      "inputs": [
        {
          "internalType": "uint256",
          "name": "_id",
          "type": "uint256"
        }
      ],
      "name": "getKitty",
      "outputs": [
        {
          "internalType": "uint256",
          "name": "genes",
          "type": "uint256"
        },
        {
          "internalType": "uint256",
          "name": "birthTime",
          "type": "uint256"
        },
        {
          "internalType": "uint256",
          "name": "mumID",
          "type": "uint256"
        },
        {
          "internalType": "uint256",
          "name": "dadID",
          "type": "uint256"
        },
        {
          "internalType": "uint256",
          "name": "generation",
          "type": "uint256"
        }
      ],
      "stateMutability": "view",
      "type": "function",
      "constant": true
    },
    {
      "inputs": [
        {
          "internalType": "address",
          "name": "_owner",
          "type": "address"
        }
      ],
      "name": "getKittyByOwner",
      "outputs": [
        {
          "internalType": "uint256[]",
          "name": "",
          "type": "uint256[]"
        }
      ],
      "stateMutability": "view",
      "type": "function",
      "constant": true
    },
    {
      "inputs": [
        {
          "internalType": "address",
          "name": "_from",
          "type": "address"
        },
        {
          "internalType": "address",
          "name": "_to",
          "type": "address"
        },
        {
          "internalType": "uint256",
          "name": "_tokenId",
          "type": "uint256"
        }
      ],
      "name": "safeTransferFrom",
      "outputs": [],
      "stateMutability": "nonpayable",
      "type": "function"
    },
    {
      "inputs": [
        {
          "internalType": "address",
          "name": "_from",
          "type": "address"
        },
        {
          "internalType": "address",
          "name": "_to",
          "type": "address"
        },
        {
          "internalType": "uint256",
          "name": "_tokenId",
          "type": "uint256"
        },
        {
          "internalType": "bytes",
          "name": "data",
          "type": "bytes"
        }
      ],
      "name": "safeTransferFrom",
      "outputs": [],
      "stateMutability": "nonpayable",
      "type": "function"
    },
    {
      "inputs": [
        {
          "internalType": "address",
          "name": "_from",
          "type": "address"
        },
        {
          "internalType": "address",
          "name": "_to",
          "type": "address"
        },
        {
          "internalType": "uint256",
          "name": "_tokenId",
          "type": "uint256"
        }
      ],
      "name": "transferFrom",
      "outputs": [],
      "stateMutability": "nonpayable",
      "type": "function"
    }
  ],
  "bytecode": "0x6080604052601460025560006003553480156200001b57600080fd5b5033600460006101000a81548173ffffffffffffffffffffffffffffffffffffffff021916908373ffffffffffffffffffffffffffffffffffffffff1602179055506200007560008060008060006200007c60201b60201c565b5062000567565b6000806040518060a001604052808581526020014267ffffffffffffffff1681526020018863ffffffff1681526020018763ffffffff1681526020018661ffff16815250905060078190806001815401808255809150506001900390600052602060002090600202016000909190919091506000820151816000015560208201518160010160006101000a81548167ffffffffffffffff021916908367ffffffffffffffff16021790555060408201518160010160086101000a81548163ffffffff021916908363ffffffff160217905550606082015181600101600c6101000a81548163ffffffff021916908363ffffffff16021790555060808201518160010160106101000a81548161ffff021916908361ffff160217905550505060006001600780549050620001b091906200041c565b90507f0a5311bd2a6608f08a180df2ee7c5946819a649b204b554bb8e39825b2c50ad584828a8a89604051620001eb959493929190620004ad565b60405180910390a162000207600085836200021560201b60201c565b809250505095945050505050565b60016000808473ffffffffffffffffffffffffffffffffffffffff1673ffffffffffffffffffffffffffffffffffffffff16815260200190815260200160002060008282546200026691906200050a565b92505081905550600073ffffffffffffffffffffffffffffffffffffffff168373ffffffffffffffffffffffffffffffffffffffff1614620003315760016000808473ffffffffffffffffffffffffffffffffffffffff1673ffffffffffffffffffffffffffffffffffffffff1681526020019081526020016000206000828254620002f391906200041c565b925050819055506005600082815260200190815260200160002060006101000a81549073ffffffffffffffffffffffffffffffffffffffff02191690555b816001600083815260200190815260200160002060006101000a81548173ffffffffffffffffffffffffffffffffffffffff021916908373ffffffffffffffffffffffffffffffffffffffff160217905550808273ffffffffffffffffffffffffffffffffffffffff168473ffffffffffffffffffffffffffffffffffffffff167fddf252ad1be2c89b69c2b068fc378daa952ba7f163c4a11628f55a4df523b3ef60405160405180910390a4505050565b6000819050919050565b7f4e487b7100000000000000000000000000000000000000000000000000000000600052601160045260246000fd5b60006200042982620003e3565b91506200043683620003e3565b9250828210156200044c576200044b620003ed565b5b828203905092915050565b600073ffffffffffffffffffffffffffffffffffffffff82169050919050565b6000620004848262000457565b9050919050565b620004968162000477565b82525050565b620004a781620003e3565b82525050565b600060a082019050620004c460008301886200048b565b620004d360208301876200049c565b620004e260408301866200049c565b620004f160608301856200049c565b6200050060808301846200049c565b9695505050505050565b60006200051782620003e3565b91506200052483620003e3565b9250827fffffffffffffffffffffffffffffffffffffffffffffffffffffffffffffffff038211156200055c576200055b620003ed565b5b828201905092915050565b612e5e80620005776000396000f3fe608060405234801561001057600080fd5b50600436106101735760003560e01c806395d89b41116100de578063d28d885211610097578063e327a6af11610071578063e327a6af14610488578063e515a4d1146104b8578063e985e9c5146104d6578063e98b7f4d1461050657610173565b8063d28d88521461040a578063d5a776ca14610428578063d9ecad7b1461045857610173565b806395d89b411461034a57806395e6c62f14610368578063a22cb46514610398578063a9059cbb146103b4578063b09f1266146103d0578063b88d4fde146103ee57610173565b806342842e0e1161013057806342842e0e1461024c5780634558098814610268578063481af3d3146102865780636352211e146102b657806370a08231146102e65780638cc51eda1461031657610173565b806301ffc9a71461017857806306fdde03146101a8578063081812fc146101c6578063095ea7b3146101f657806318160ddd1461021257806323b872dd14610230575b600080fd5b610192600480360381019061018d919061231e565b61053a565b60405161019f9190612366565b60405180910390f35b6101b06105da565b6040516101bd919061241a565b60405180910390f35b6101e060048036038101906101db9190612472565b610617565b6040516101ed91906124e0565b60405180910390f35b610210600480360381019061020b9190612527565b610665565b005b61021a61081d565b6040516102279190612576565b60405180910390f35b61024a60048036038101906102459190612591565b61082a565b005b61026660048036038101906102619190612591565b610a98565b005b610270610d16565b60405161027d9190612576565b60405180910390f35b6102a0600480360381019061029b9190612472565b610d1c565b6040516102ad91906124e0565b60405180910390f35b6102d060048036038101906102cb9190612472565b610d4f565b6040516102dd91906124e0565b60405180910390f35b61030060048036038101906102fb91906125e4565b610d8c565b60405161030d9190612576565b60405180910390f35b610330600480360381019061032b9190612472565b610dd4565b604051610341959493929190612670565b60405180910390f35b610352610e5c565b60405161035f919061241a565b60405180910390f35b610382600480360381019061037d91906125e4565b610e99565b60405161038f9190612781565b60405180910390f35b6103b260048036038101906103ad91906127cf565b610feb565b005b6103ce60048036038101906103c99190612527565b61113d565b005b6103d861122a565b6040516103e5919061241a565b60405180910390f35b61040860048036038101906104039190612874565b611263565b005b610412611518565b60405161041f919061241a565b60405180910390f35b610442600480360381019061043d9190612472565b611551565b60405161044f9190612576565b60405180910390f35b610472600480360381019061046d91906128fc565b611661565b60405161047f9190612576565b60405180910390f35b6104a2600480360381019061049d9190612527565b611819565b6040516104af9190612366565b60405180910390f35b6104c0611896565b6040516104cd9190612576565b60405180910390f35b6104f060048036038101906104eb919061293c565b61189c565b6040516104fd9190612366565b60405180910390f35b610520600480360381019061051b9190612472565b611930565b60405161053195949392919061297c565b60405180910390f35b60006380ac58cd60e01b7bffffffffffffffffffffffffffffffffffffffffffffffffffffffff1916827bffffffffffffffffffffffffffffffffffffffffffffffffffffffff191614806105d357506301ffc9a760e01b7bffffffffffffffffffffffffffffffffffffffffffffffffffffffff1916827bffffffffffffffffffffffffffffffffffffffffffffffffffffffff1916145b9050919050565b60606040518060400160405280600a81526020017f44616e4b69747469657300000000000000000000000000000000000000000000815250905090565b6000600780549050821061062a57600080fd5b6005600083815260200190815260200160002060009054906101000a900473ffffffffffffffffffffffffffffffffffffffff169050919050565b3373ffffffffffffffffffffffffffffffffffffffff166001600083815260200190815260200160002060009054906101000a900473ffffffffffffffffffffffffffffffffffffffff1673ffffffffffffffffffffffffffffffffffffffff161480610792575060011515600660006001600085815260200190815260200160002060009054906101000a900473ffffffffffffffffffffffffffffffffffffffff1673ffffffffffffffffffffffffffffffffffffffff1673ffffffffffffffffffffffffffffffffffffffff16815260200190815260200160002060003373ffffffffffffffffffffffffffffffffffffffff1673ffffffffffffffffffffffffffffffffffffffff16815260200190815260200160002060009054906101000a900460ff161515145b61079b57600080fd5b3373ffffffffffffffffffffffffffffffffffffffff168273ffffffffffffffffffffffffffffffffffffffff1614156107d457600080fd5b600073ffffffffffffffffffffffffffffffffffffffff168273ffffffffffffffffffffffffffffffffffffffff16141561080e57600080fd5b6108193383836119e6565b5050565b6000600780549050905090565b3373ffffffffffffffffffffffffffffffffffffffff168373ffffffffffffffffffffffffffffffffffffffff1614156108ce573373ffffffffffffffffffffffffffffffffffffffff166001600083815260200190815260200160002060009054906101000a900473ffffffffffffffffffffffffffffffffffffffff1673ffffffffffffffffffffffffffffffffffffffff16146108c957600080fd5b610a3d565b3373ffffffffffffffffffffffffffffffffffffffff166005600083815260200190815260200160002060009054906101000a900473ffffffffffffffffffffffffffffffffffffffff1673ffffffffffffffffffffffffffffffffffffffff1614806109c8575060011515600660008573ffffffffffffffffffffffffffffffffffffffff1673ffffffffffffffffffffffffffffffffffffffff16815260200190815260200160002060008473ffffffffffffffffffffffffffffffffffffffff1673ffffffffffffffffffffffffffffffffffffffff16815260200190815260200160002060009054906101000a900460ff161515145b6109d157600080fd5b8273ffffffffffffffffffffffffffffffffffffffff166001600083815260200190815260200160002060009054906101000a900473ffffffffffffffffffffffffffffffffffffffff1673ffffffffffffffffffffffffffffffffffffffff1614610a3c57600080fd5b5b600073ffffffffffffffffffffffffffffffffffffffff168273ffffffffffffffffffffffffffffffffffffffff161415610a7757600080fd5b6007805490508110610a8857600080fd5b610a93838383611a98565b505050565b3373ffffffffffffffffffffffffffffffffffffffff168373ffffffffffffffffffffffffffffffffffffffff161415610b3c573373ffffffffffffffffffffffffffffffffffffffff166001600083815260200190815260200160002060009054906101000a900473ffffffffffffffffffffffffffffffffffffffff1673ffffffffffffffffffffffffffffffffffffffff1614610b3757600080fd5b610cab565b3373ffffffffffffffffffffffffffffffffffffffff166005600083815260200190815260200160002060009054906101000a900473ffffffffffffffffffffffffffffffffffffffff1673ffffffffffffffffffffffffffffffffffffffff161480610c36575060011515600660008573ffffffffffffffffffffffffffffffffffffffff1673ffffffffffffffffffffffffffffffffffffffff16815260200190815260200160002060008473ffffffffffffffffffffffffffffffffffffffff1673ffffffffffffffffffffffffffffffffffffffff16815260200190815260200160002060009054906101000a900460ff161515145b610c3f57600080fd5b8273ffffffffffffffffffffffffffffffffffffffff166001600083815260200190815260200160002060009054906101000a900473ffffffffffffffffffffffffffffffffffffffff1673ffffffffffffffffffffffffffffffffffffffff1614610caa57600080fd5b5b600073ffffffffffffffffffffffffffffffffffffffff168273ffffffffffffffffffffffffffffffffffffffff161415610ce557600080fd5b6007805490508110610cf657600080fd5b610d1183838360405180602001604052806000815250611c61565b505050565b60035481565b60056020528060005260406000206000915054906101000a900473ffffffffffffffffffffffffffffffffffffffff1681565b60006001600083815260200190815260200160002060009054906101000a900473ffffffffffffffffffffffffffffffffffffffff169050919050565b60008060008373ffffffffffffffffffffffffffffffffffffffff1673ffffffffffffffffffffffffffffffffffffffff168152602001908152602001600020549050919050565b60078181548110610de457600080fd5b90600052602060002090600202016000915090508060000154908060010160009054906101000a900467ffffffffffffffff16908060010160089054906101000a900463ffffffff169080600101600c9054906101000a900463ffffffff16908060010160109054906101000a900461ffff16905085565b60606040518060400160405280600481526020017f444b545300000000000000000000000000000000000000000000000000000000815250905090565b606060008060008473ffffffffffffffffffffffffffffffffffffffff1673ffffffffffffffffffffffffffffffffffffffff1681526020019081526020016000205467ffffffffffffffff811115610ef557610ef46129cf565b5b604051908082528060200260200182016040528015610f235781602001602082028036833780820191505090505b5090506000805b600780549050811015610fe0578473ffffffffffffffffffffffffffffffffffffffff166001600083815260200190815260200160002060009054906101000a900473ffffffffffffffffffffffffffffffffffffffff1673ffffffffffffffffffffffffffffffffffffffff161415610fcd5780838381518110610fb257610fb16129fe565b5b6020026020010181815250508180610fc990612a5c565b9250505b8080610fd890612a5c565b915050610f2a565b508192505050919050565b600073ffffffffffffffffffffffffffffffffffffffff168273ffffffffffffffffffffffffffffffffffffffff16141561102557600080fd5b3373ffffffffffffffffffffffffffffffffffffffff168273ffffffffffffffffffffffffffffffffffffffff16141561105e57600080fd5b600660003373ffffffffffffffffffffffffffffffffffffffff1673ffffffffffffffffffffffffffffffffffffffff16815260200190815260200160002060008373ffffffffffffffffffffffffffffffffffffffff1673ffffffffffffffffffffffffffffffffffffffff16815260200190815260200160002060009054906101000a900460ff161515811515141561112e576040517f08c379a000000000000000000000000000000000000000000000000000000000815260040161112590612af1565b60405180910390fd5b611139338383611c87565b5050565b600073ffffffffffffffffffffffffffffffffffffffff168273ffffffffffffffffffffffffffffffffffffffff16141561117757600080fd5b3073ffffffffffffffffffffffffffffffffffffffff168273ffffffffffffffffffffffffffffffffffffffff1614156111b057600080fd5b3373ffffffffffffffffffffffffffffffffffffffff166001600083815260200190815260200160002060009054906101000a900473ffffffffffffffffffffffffffffffffffffffff1673ffffffffffffffffffffffffffffffffffffffff161461121b57600080fd5b611226338383611a98565b5050565b6040518060400160405280600481526020017f444b54530000000000000000000000000000000000000000000000000000000081525081565b3373ffffffffffffffffffffffffffffffffffffffff168573ffffffffffffffffffffffffffffffffffffffff161415611307573373ffffffffffffffffffffffffffffffffffffffff166001600085815260200190815260200160002060009054906101000a900473ffffffffffffffffffffffffffffffffffffffff1673ffffffffffffffffffffffffffffffffffffffff161461130257600080fd5b611476565b3373ffffffffffffffffffffffffffffffffffffffff166005600085815260200190815260200160002060009054906101000a900473ffffffffffffffffffffffffffffffffffffffff1673ffffffffffffffffffffffffffffffffffffffff161480611401575060011515600660008773ffffffffffffffffffffffffffffffffffffffff1673ffffffffffffffffffffffffffffffffffffffff16815260200190815260200160002060008673ffffffffffffffffffffffffffffffffffffffff1673ffffffffffffffffffffffffffffffffffffffff16815260200190815260200160002060009054906101000a900460ff161515145b61140a57600080fd5b8473ffffffffffffffffffffffffffffffffffffffff166001600085815260200190815260200160002060009054906101000a900473ffffffffffffffffffffffffffffffffffffffff1673ffffffffffffffffffffffffffffffffffffffff161461147557600080fd5b5b600073ffffffffffffffffffffffffffffffffffffffff168473ffffffffffffffffffffffffffffffffffffffff1614156114b057600080fd5b60078054905083106114c157600080fd5b61151185858585858080601f016020809104026020016040519081016040528093929190818152602001838380828437600081840152601f19601f82011690508083019250505050505050611c61565b5050505050565b6040518060400160405280600a81526020017f44616e4b6974746965730000000000000000000000000000000000000000000081525081565b6000600460009054906101000a900473ffffffffffffffffffffffffffffffffffffffff1673ffffffffffffffffffffffffffffffffffffffff163373ffffffffffffffffffffffffffffffffffffffff16146115ad57600080fd5b600254600354106115bd57600080fd5b600360008154809291906115d090612a5c565b91905055506000803373ffffffffffffffffffffffffffffffffffffffff1673ffffffffffffffffffffffffffffffffffffffff168152602001908152602001600020600081548092919061162490612a5c565b919050555061165a600080600085600460009054906101000a900473ffffffffffffffffffffffffffffffffffffffff16611d85565b9050919050565b60003373ffffffffffffffffffffffffffffffffffffffff166001600085815260200190815260200160002060009054906101000a900473ffffffffffffffffffffffffffffffffffffffff1673ffffffffffffffffffffffffffffffffffffffff1614801561172f57503373ffffffffffffffffffffffffffffffffffffffff166001600084815260200190815260200160002060009054906101000a900473ffffffffffffffffffffffffffffffffffffffff1673ffffffffffffffffffffffffffffffffffffffff16145b61173857600080fd5b60006007848154811061174e5761174d6129fe565b5b9060005260206000209060020201600001549050600060078481548110611778576117776129fe565b5b906000526020600020906002020160000154905060006117988383611f12565b905060006117a68787612060565b90506000803373ffffffffffffffffffffffffffffffffffffffff1673ffffffffffffffffffffffffffffffffffffffff16815260200190815260200160002060008154809291906117f790612a5c565b919050555061180d86888361ffff168533611d85565b94505050505092915050565b60008273ffffffffffffffffffffffffffffffffffffffff166001600084815260200190815260200160002060009054906101000a900473ffffffffffffffffffffffffffffffffffffffff1673ffffffffffffffffffffffffffffffffffffffff16141561188b5760019050611890565b600090505b92915050565b60025481565b6000600660008473ffffffffffffffffffffffffffffffffffffffff1673ffffffffffffffffffffffffffffffffffffffff16815260200190815260200160002060008373ffffffffffffffffffffffffffffffffffffffff1673ffffffffffffffffffffffffffffffffffffffff16815260200190815260200160002060009054906101000a900460ff16905092915050565b6000806000806000806007878154811061194d5761194c6129fe565b5b906000526020600020906002020190508060010160009054906101000a900467ffffffffffffffff1667ffffffffffffffff1694508060010160089054906101000a900463ffffffff1663ffffffff16935080600101600c9054906101000a900463ffffffff1663ffffffff1692508060010160109054906101000a900461ffff1661ffff169150806000015495505091939590929450565b816005600083815260200190815260200160002060006101000a81548173ffffffffffffffffffffffffffffffffffffffff021916908373ffffffffffffffffffffffffffffffffffffffff160217905550808273ffffffffffffffffffffffffffffffffffffffff168473ffffffffffffffffffffffffffffffffffffffff167f8c5be1e5ebec7d5bd14f71427d1e84f3dd0314c0f7b2291e5b200ac8c7c3b92560405160405180910390a4505050565b60016000808473ffffffffffffffffffffffffffffffffffffffff1673ffffffffffffffffffffffffffffffffffffffff1681526020019081526020016000206000828254611ae79190612b11565b92505081905550600073ffffffffffffffffffffffffffffffffffffffff168373ffffffffffffffffffffffffffffffffffffffff1614611baf5760016000808473ffffffffffffffffffffffffffffffffffffffff1673ffffffffffffffffffffffffffffffffffffffff1681526020019081526020016000206000828254611b719190612b67565b925050819055506005600082815260200190815260200160002060006101000a81549073ffffffffffffffffffffffffffffffffffffffff02191690555b816001600083815260200190815260200160002060006101000a81548173ffffffffffffffffffffffffffffffffffffffff021916908373ffffffffffffffffffffffffffffffffffffffff160217905550808273ffffffffffffffffffffffffffffffffffffffff168473ffffffffffffffffffffffffffffffffffffffff167fddf252ad1be2c89b69c2b068fc378daa952ba7f163c4a11628f55a4df523b3ef60405160405180910390a4505050565b611c6c848484611a98565b611c7884848484612166565b611c8157600080fd5b50505050565b80600660008573ffffffffffffffffffffffffffffffffffffffff1673ffffffffffffffffffffffffffffffffffffffff16815260200190815260200160002060008473ffffffffffffffffffffffffffffffffffffffff1673ffffffffffffffffffffffffffffffffffffffff16815260200190815260200160002060006101000a81548160ff0219169083151502179055508173ffffffffffffffffffffffffffffffffffffffff168373ffffffffffffffffffffffffffffffffffffffff167f17307eab39ab6107e8899845ad3d59bd9653f200f220920489ca2b5937696c3183604051611d789190612366565b60405180910390a3505050565b6000806040518060a001604052808581526020014267ffffffffffffffff1681526020018863ffffffff1681526020018763ffffffff1681526020018661ffff16815250905060078190806001815401808255809150506001900390600052602060002090600202016000909190919091506000820151816000015560208201518160010160006101000a81548167ffffffffffffffff021916908367ffffffffffffffff16021790555060408201518160010160086101000a81548163ffffffff021916908363ffffffff160217905550606082015181600101600c6101000a81548163ffffffff021916908363ffffffff16021790555060808201518160010160106101000a81548161ffff021916908361ffff160217905550505060006001600780549050611eb79190612b67565b90507f0a5311bd2a6608f08a180df2ee7c5946819a649b204b554bb8e39825b2c50ad584828a8a89604051611ef0959493929190612b9b565b60405180910390a1611f0460008583611a98565b809250505095945050505050565b6000611f1c612299565b600061010042611f2c9190612c1d565b9050600060079050600060019050600190505b60808111611ff3576000818460ff161614611f8557606486611f619190612c1d565b60ff16848360088110611f7757611f766129fe565b5b602002018181525050611fb2565b606487611f929190612c1d565b60ff16848360088110611fa857611fa76129fe565b5b6020020181815250505b606486611fbf9190612c4e565b9550606487611fce9190612c4e565b9650600182611fdd9190612b67565b9150600281611fec9190612c7f565b9050611f3f565b60008091505b600882101561205257848260088110612015576120146129fe565b5b6020020151816120259190612b11565b90506007821461203f5760648161203c9190612c7f565b90505b818061204a90612a5c565b925050611ff9565b809550505050505092915050565b60008060078481548110612077576120766129fe565b5b906000526020600020906002020160010160109054906101000a900461ffff1690506000600784815481106120af576120ae6129fe565b5b906000526020600020906002020160010160109054906101000a900461ffff16905060008161ffff168361ffff1614156120f7576001836120f09190612cd9565b905061215a565b8161ffff168361ffff161115612132576001826121149190612cd9565b6001846121219190612cd9565b61212b9190612d11565b9050612159565b60018361213f9190612cd9565b60018361214c9190612cd9565b6121569190612d11565b90505b5b80935050505092915050565b600061217184612280565b61217e5760019050612278565b60008473ffffffffffffffffffffffffffffffffffffffff1663150b7a02338887876040518563ffffffff1660e01b81526004016121bf9493929190612d9a565b602060405180830381600087803b1580156121d957600080fd5b505af11580156121ed573d6000803e3d6000fd5b505050506040513d601f19601f820116820180604052508101906122119190612dfb565b90507f150b7a023d4804d13e8c85fb27262cb750cf6ba9f9dd3bb30d90f482ceeb4b1f7bffffffffffffffffffffffffffffffffffffffffffffffffffffffff1916817bffffffffffffffffffffffffffffffffffffffffffffffffffffffff1916149150505b949350505050565b600080823b905060008163ffffffff1611915050919050565b604051806101000160405280600890602082028036833780820191505090505090565b600080fd5b600080fd5b60007fffffffff0000000000000000000000000000000000000000000000000000000082169050919050565b6122fb816122c6565b811461230657600080fd5b50565b600081359050612318816122f2565b92915050565b600060208284031215612334576123336122bc565b5b600061234284828501612309565b91505092915050565b60008115159050919050565b6123608161234b565b82525050565b600060208201905061237b6000830184612357565b92915050565b600081519050919050565b600082825260208201905092915050565b60005b838110156123bb5780820151818401526020810190506123a0565b838111156123ca576000848401525b50505050565b6000601f19601f8301169050919050565b60006123ec82612381565b6123f6818561238c565b935061240681856020860161239d565b61240f816123d0565b840191505092915050565b6000602082019050818103600083015261243481846123e1565b905092915050565b6000819050919050565b61244f8161243c565b811461245a57600080fd5b50565b60008135905061246c81612446565b92915050565b600060208284031215612488576124876122bc565b5b60006124968482850161245d565b91505092915050565b600073ffffffffffffffffffffffffffffffffffffffff82169050919050565b60006124ca8261249f565b9050919050565b6124da816124bf565b82525050565b60006020820190506124f560008301846124d1565b92915050565b612504816124bf565b811461250f57600080fd5b50565b600081359050612521816124fb565b92915050565b6000806040838503121561253e5761253d6122bc565b5b600061254c85828601612512565b925050602061255d8582860161245d565b9150509250929050565b6125708161243c565b82525050565b600060208201905061258b6000830184612567565b92915050565b6000806000606084860312156125aa576125a96122bc565b5b60006125b886828701612512565b93505060206125c986828701612512565b92505060406125da8682870161245d565b9150509250925092565b6000602082840312156125fa576125f96122bc565b5b600061260884828501612512565b91505092915050565b600067ffffffffffffffff82169050919050565b61262e81612611565b82525050565b600063ffffffff82169050919050565b61264d81612634565b82525050565b600061ffff82169050919050565b61266a81612653565b82525050565b600060a0820190506126856000830188612567565b6126926020830187612625565b61269f6040830186612644565b6126ac6060830185612644565b6126b96080830184612661565b9695505050505050565b600081519050919050565b600082825260208201905092915050565b6000819050602082019050919050565b6126f88161243c565b82525050565b600061270a83836126ef565b60208301905092915050565b6000602082019050919050565b600061272e826126c3565b61273881856126ce565b9350612743836126df565b8060005b8381101561277457815161275b88826126fe565b975061276683612716565b925050600181019050612747565b5085935050505092915050565b6000602082019050818103600083015261279b8184612723565b905092915050565b6127ac8161234b565b81146127b757600080fd5b50565b6000813590506127c9816127a3565b92915050565b600080604083850312156127e6576127e56122bc565b5b60006127f485828601612512565b9250506020612805858286016127ba565b9150509250929050565b600080fd5b600080fd5b600080fd5b60008083601f8401126128345761283361280f565b5b8235905067ffffffffffffffff81111561285157612850612814565b5b60208301915083600182028301111561286d5761286c612819565b5b9250929050565b6000806000806000608086880312156128905761288f6122bc565b5b600061289e88828901612512565b95505060206128af88828901612512565b94505060406128c08882890161245d565b935050606086013567ffffffffffffffff8111156128e1576128e06122c1565b5b6128ed8882890161281e565b92509250509295509295909350565b60008060408385031215612913576129126122bc565b5b60006129218582860161245d565b92505060206129328582860161245d565b9150509250929050565b60008060408385031215612953576129526122bc565b5b600061296185828601612512565b925050602061297285828601612512565b9150509250929050565b600060a0820190506129916000830188612567565b61299e6020830187612567565b6129ab6040830186612567565b6129b86060830185612567565b6129c56080830184612567565b9695505050505050565b7f4e487b7100000000000000000000000000000000000000000000000000000000600052604160045260246000fd5b7f4e487b7100000000000000000000000000000000000000000000000000000000600052603260045260246000fd5b7f4e487b7100000000000000000000000000000000000000000000000000000000600052601160045260246000fd5b6000612a678261243c565b91507fffffffffffffffffffffffffffffffffffffffffffffffffffffffffffffffff821415612a9a57612a99612a2d565b5b600182019050919050565b7f43616e6e6f74206f766572777269746520616e20417070726f76616c00000000600082015250565b6000612adb601c8361238c565b9150612ae682612aa5565b602082019050919050565b60006020820190508181036000830152612b0a81612ace565b9050919050565b6000612b1c8261243c565b9150612b278361243c565b9250827fffffffffffffffffffffffffffffffffffffffffffffffffffffffffffffffff03821115612b5c57612b5b612a2d565b5b828201905092915050565b6000612b728261243c565b9150612b7d8361243c565b925082821015612b9057612b8f612a2d565b5b828203905092915050565b600060a082019050612bb060008301886124d1565b612bbd6020830187612567565b612bca6040830186612567565b612bd76060830185612567565b612be46080830184612567565b9695505050505050565b7f4e487b7100000000000000000000000000000000000000000000000000000000600052601260045260246000fd5b6000612c288261243c565b9150612c338361243c565b925082612c4357612c42612bee565b5b828206905092915050565b6000612c598261243c565b9150612c648361243c565b925082612c7457612c73612bee565b5b828204905092915050565b6000612c8a8261243c565b9150612c958361243c565b9250817fffffffffffffffffffffffffffffffffffffffffffffffffffffffffffffffff0483118215151615612cce57612ccd612a2d565b5b828202905092915050565b6000612ce482612653565b9150612cef83612653565b92508261ffff03821115612d0657612d05612a2d565b5b828201905092915050565b6000612d1c82612653565b9150612d2783612653565b925082821015612d3a57612d39612a2d565b5b828203905092915050565b600081519050919050565b600082825260208201905092915050565b6000612d6c82612d45565b612d768185612d50565b9350612d8681856020860161239d565b612d8f816123d0565b840191505092915050565b6000608082019050612daf60008301876124d1565b612dbc60208301866124d1565b612dc96040830185612567565b8181036060830152612ddb8184612d61565b905095945050505050565b600081519050612df5816122f2565b92915050565b600060208284031215612e1157612e106122bc565b5b6000612e1f84828501612de6565b9150509291505056fea26469706673582212201fae4835147bd598609a8c5b4e5d776ba269476c6b9471f840696a62c26eddc564736f6c63430008090033",
  "immutableReferences": {},
  "source": "// SPDX-License-Identifier: MIT\npragma solidity ^0.8.0;\npragma experimental ABIEncoderV2;\n\nimport \"./IERC721.sol\";\nimport \"./IERC721Receiver.sol\";\n\ncontract Kitty is IERC721 {\n\n    mapping(address => uint256) tokenAmount;\n    mapping(uint256 => address) tokenToOwner;\n\n    function isOwner(address _owner, uint256 _tokenId) public view returns(bool) {\n        if(tokenToOwner[_tokenId] == _owner){\n            return true;\n        } else {\n            return false;\n        }\n    }\n\n    uint public gen0Limit = 20;\n    uint public gen0Amount = 0;\n\n    bytes4 private constant _INTERFACE_ID_ERC721 = 0x80ac58cd;\n    bytes4 private constant _INTERFACE_ID_ERC165 = 0x01ffc9a7;\n\n    string public constant _name = \"DanKitties\";\n    string public constant _symbol = \"DKTS\";\n    address private owner;\n    bytes4 internal constant ERC721_Received = bytes4(keccak256(\"onERC721Received(address,address,uint256,bytes)\"));\n\n    mapping(uint => address) public kittyIndexToApproved;\n    //first address owner second address approved \n    mapping(address => mapping(address => bool)) private _operatorApprovals;\n\n    constructor(){\n        owner = msg.sender;\n        //creates a kitty so no other kitty can occupy index 0 and cause problems \n        _createKitty(0,0,0, uint256(0), address(0));\n    }\n\n    event Birth(address _owner, uint kittenId, uint mumId, uint dadId, uint genes);\n\n    struct Token {\n        uint256 genes;\n        uint64 birthTime;\n        uint32 mumID;\n        uint32 dadID;\n        uint16 generation;\n    }\n\n    Token[] public kitties;\n\n    modifier onlyOwner(){\n        require(msg.sender == owner);\n        _;\n    }\n\n    function supportsInterface(bytes4 _interfaceId) external pure returns(bool){\n        return (_interfaceId == _INTERFACE_ID_ERC721 || _interfaceId == _INTERFACE_ID_ERC165);\n    }\n\n    function approve(address _approved, uint256 _tokenId) external override {\n        require(tokenToOwner[_tokenId] == msg.sender || _operatorApprovals[tokenToOwner[_tokenId]][msg.sender] == true);\n        require(_approved != msg.sender);\n        require(_approved != address(0));\n\n        _approve(msg.sender, _approved, _tokenId);\n    }\n\n    function _approve(address _owner, address _approved, uint256 _tokenId) internal {\n        kittyIndexToApproved[_tokenId] = _approved;\n        emit Approval(_owner, _approved, _tokenId);\n    } \n\n    function setApprovalForAll(address _operator, bool _approved) external override {\n        require(_operator != address(0));\n        require(_operator != msg.sender);\n        require(_approved != _operatorApprovals[msg.sender][_operator], \"Cannot overwrite an Approval\");\n\n        _setApprovalForAll(msg.sender, _operator, _approved);\n    }\n\n    function _setApprovalForAll(address _owner ,address _operator, bool _approved) internal {\n        _operatorApprovals[_owner][_operator] = _approved;\n        emit ApprovalForAll(_owner, _operator, _approved);\n    }\n\n    function getApproved(uint256 _tokenId) external view override returns (address){\n        require(_tokenId < kitties.length);\n        return kittyIndexToApproved[_tokenId];\n    }\n\n    function isApprovedForAll(address _owner, address _operator) external view override returns (bool){\n        return _operatorApprovals[_owner][_operator];\n    }\n\n    function balanceOf(address _owner) external view override returns (uint256 balance){\n        return tokenAmount[_owner];\n    }\n\n     function totalSupply() external view override returns (uint256 total){\n         return kitties.length;\n    }\n\n    function name() external pure override returns (string memory tokenName){\n        return _name;\n    }\n\n    function symbol() external pure override returns (string memory tokenSymbol){\n        return _symbol;\n    }\n\n    function ownerOf(uint256 tokenId) external view override returns (address _owner){\n        return tokenToOwner[tokenId];\n    }\n\n    function transfer(address to, uint256 tokenId) external override {\n        require(to != address(0));\n        require(to != address(this));\n        require(tokenToOwner[tokenId] == msg.sender);\n\n        _transfer(msg.sender, to, tokenId);\n    }\n\n    function _transfer(address _from, address _to, uint256 tokenId) internal {\n        tokenAmount[_to]+= 1;\n        \n        if(_from != address(0)){\n            tokenAmount[_to] -=1;\n            delete kittyIndexToApproved[tokenId];\n        }\n        tokenToOwner[tokenId] = _to;\n        emit Transfer(_from, _to, tokenId);\n    }\n\n    function breed(uint256 _dadId, uint256 _mumId) public returns(uint256){\n        require(tokenToOwner[_dadId] == msg.sender && tokenToOwner[_mumId] == msg.sender);\n        uint256 _dadDNA = kitties[_dadId].genes;\n        uint256 _mumDNA = kitties[_mumId].genes;\n        \n        uint256 _newDNA = _mixDNA(_dadDNA, _mumDNA);\n        uint16 newGen = newGeneration(_dadId, _mumId);\n        tokenAmount[msg.sender]++;\n        return _createKitty(_mumId, _dadId, newGen, _newDNA, msg.sender);\n    }    \n\n    function newGeneration(uint256 _dadId, uint256 _mumId) internal view returns(uint16) {\n        uint16 _dadGen = kitties[_dadId].generation;\n        uint16 _mumGen = kitties[_mumId].generation;\n        uint16 _childGen;\n\n        if(_dadGen == _mumGen){\n            _childGen = _dadGen + 1;\n        } else if (_dadGen > _mumGen){\n            _childGen = (_dadGen + 1) - (_mumGen + 1);\n        } else {\n            _childGen = (_mumGen + 1) - (_dadGen + 1);\n        }\n        return _childGen;\n    }\n\n    function _mixDNA(uint256 _dadDNA,uint256 _mumDNA) internal view returns (uint256) {\n        uint256[8] memory geneArray;\n        uint8 random = uint8(block.timestamp % 256);\n        uint index = 7;\n        uint i = 1;\n        for(i=1; i <= 128; i= i*2){\n            if(random & i != 0){\n                geneArray[index] = uint8(_mumDNA % 100);\n            } else {\n                geneArray[index] = uint8(_dadDNA % 100);\n            }\n            _mumDNA = _mumDNA / 100;\n            _dadDNA = _dadDNA / 100;\n            index = index -1;\n        }\n        uint256 newGene;\n        for(i=0; i<8; i++){\n            newGene = newGene + geneArray[i];\n            if(i != 7){\n                newGene = newGene * 100;\n            }\n        }\n        return newGene;\n\n    } \n\n    function _createKitty(uint256 _mumID, uint256 _dadID, uint256 _generation,\n    uint256 _genes, address _owner) internal returns(uint256){\n        Token memory _kitty = Token ({genes: _genes, birthTime: uint64(block.timestamp),\n        mumID: uint32(_mumID), dadID: uint32(_dadID), generation: uint16(_generation)});\n        kitties.push(_kitty);\n        uint256 newKittyId = kitties.length -1; \n        emit Birth(_owner, newKittyId, _mumID, _dadID, _genes);\n        _transfer(address(0), _owner, newKittyId);\n        return newKittyId;\n    }\n\n    function createKittyGen0(uint _genes) public onlyOwner returns(uint256){\n        require(gen0Amount < gen0Limit);\n        gen0Amount++;\n        tokenAmount[msg.sender]++;\n        return _createKitty(0,0,0, _genes, owner);\n    }\n\n    function getKitty(uint256 _id) public view returns (\n        uint256 genes,\n        uint256 birthTime,\n        uint256 mumID,\n        uint256 dadID,\n        uint256 generation\n    ) \n    {\n        Token storage kitty = kitties[_id];\n\n        birthTime = uint256(kitty.birthTime);\n        mumID = uint256(kitty.mumID);\n        dadID = uint256(kitty.dadID);\n        generation = uint256(kitty.generation);\n        genes = kitty.genes;\n    }\n\n    function getKittyByOwner(address _owner) external view returns(uint[] memory) {\n        uint[] memory result = new uint[](tokenAmount[_owner]);\n        uint counter = 0;\n        for (uint i = 0; i < kitties.length; i++) {\n            if (tokenToOwner[i] == _owner) {\n                result[counter] = i;\n                counter++;\n            }\n        }\n        return result;\n    }\n\n    function safeTransferFrom(address _from, address _to, uint256 _tokenId, bytes calldata data) external override {\n        if(_from == msg.sender){\n            require(tokenToOwner[_tokenId] == msg.sender);\n        } else {\n            require(kittyIndexToApproved[_tokenId] == msg.sender || _operatorApprovals[_from][_to] == true);\n            require(tokenToOwner[_tokenId] == _from);\n        }\n        require(_to != address(0));\n        require(_tokenId < kitties.length);\n\n        _safeTransfer(_from, _to, _tokenId, data);\n    }\n\n    function safeTransferFrom(address _from, address _to, uint256 _tokenId) external override {\n        if(_from == msg.sender){\n            require(tokenToOwner[_tokenId] == msg.sender);\n        } else {\n            require(kittyIndexToApproved[_tokenId] == msg.sender || _operatorApprovals[_from][_to] == true);\n            require(tokenToOwner[_tokenId] == _from);\n        }\n        require(_to != address(0));\n        require(_tokenId < kitties.length);\n\n        _safeTransfer(_from, _to, _tokenId, \"\");\n    }\n\n    function transferFrom(address _from, address _to, uint256 _tokenId) public override {\n        if(_from == msg.sender){\n            require(tokenToOwner[_tokenId] == msg.sender);\n        } else {\n            require(kittyIndexToApproved[_tokenId] == msg.sender || _operatorApprovals[_from][_to] == true);\n            require(tokenToOwner[_tokenId] == _from);\n        }\n        require(_to != address(0));\n        require(_tokenId < kitties.length);\n\n        _transfer(_from, _to, _tokenId);\n    }\n\n    function _safeTransfer(address _from, address _to, uint256 _tokenId, bytes memory _data) internal {\n        _transfer(_from, _to, _tokenId);\n        require(_checkERC721Support(_from, _to, _tokenId, _data));\n    }\n\n    function _checkERC721Support(address _from, address _to, uint256 _tokenId, bytes memory _data) internal returns (bool){\n        if(! _isContract(_to)){\n            return true;\n        }\n\n        bytes4 returnData = IERC721Receiver(_to).onERC721Received(msg.sender, _from, _tokenId, _data);\n        return returnData == ERC721_Received;\n    }\n\n    function _isContract(address _to) internal view returns(bool){\n        uint32 size;\n        assembly {\n            size:= extcodesize(_to)\n        }\n        return size>0; \n    }\n\n\n\n}",
  "sourcePath": "/Users/danieljoseph/Documents/GitHub/academy-kitties/contracts/KittyContract.sol",
  "compiler": {
    "name": "solc",
    "version": "0.8.9+commit.e5eed63a.Emscripten.clang"
  },
  "schemaVersion": "3.4.3",
  "updatedAt": "2021-10-17T12:19:41.221Z",
  "networkType": "ethereum",
  "devdoc": {
    "kind": "dev",
    "methods": {
      "approve(address,uint256)": {
        "details": "The zero address indicates there is no approved address.  Throws unless `msg.sender` is the current NFT owner, or an authorized  operator of the current owner.",
        "params": {
          "_approved": "The new approved NFT controller",
          "_tokenId": "The NFT to approve"
        }
      },
      "getApproved(uint256)": {
        "details": "Throws if `_tokenId` is not a valid NFT.",
        "params": {
          "_tokenId": "The NFT to find the approved address for"
        },
        "returns": {
          "_0": "The approved address for this NFT, or the zero address if there is none"
        }
      },
      "isApprovedForAll(address,address)": {
        "params": {
          "_operator": "The address that acts on behalf of the owner",
          "_owner": "The address that owns the NFTs"
        },
        "returns": {
          "_0": "True if `_operator` is an approved operator for `_owner`, false otherwise"
        }
      },
      "ownerOf(uint256)": {
        "details": "Returns the owner of the `tokenId` token. Requirements: - `tokenId` must exist."
      },
      "safeTransferFrom(address,address,uint256)": {
        "details": "This works identically to the other function with an extra data parameter,  except this function just sets data to \"\".",
        "params": {
          "_from": "The current owner of the NFT",
          "_to": "The new owner",
          "_tokenId": "The NFT to transfer"
        }
      },
      "safeTransferFrom(address,address,uint256,bytes)": {
        "details": "Throws unless `msg.sender` is the current owner, an authorized  operator, or the approved address for this NFT. Throws if `_from` is  not the current owner. Throws if `_to` is the zero address. Throws if  `_tokenId` is not a valid NFT. When transfer is complete, this function  checks if `_to` is a smart contract (code size > 0). If so, it calls  `onERC721Received` on `_to` and throws if the return value is not  `bytes4(keccak256(\"onERC721Received(address,address,uint256,bytes)\"))`.",
        "params": {
          "_from": "The current owner of the NFT",
          "_to": "The new owner",
          "_tokenId": "The NFT to transfer",
          "data": "Additional data with no specified format, sent in call to `_to`"
        }
      },
      "setApprovalForAll(address,bool)": {
        "details": "Emits the ApprovalForAll event. The contract MUST allow  multiple operators per owner.",
        "params": {
          "_approved": "True if the operator is approved, false to revoke approval",
          "_operator": "Address to add to the set of authorized operators"
        }
      },
      "transferFrom(address,address,uint256)": {
        "details": "Throws unless `msg.sender` is the current owner, an authorized  operator, or the approved address for this NFT. Throws if `_from` is  not the current owner. Throws if `_to` is the zero address. Throws if  `_tokenId` is not a valid NFT.",
        "params": {
          "_from": "The current owner of the NFT",
          "_to": "The new owner",
          "_tokenId": "The NFT to transfer"
        }
      }
    },
    "version": 1
  },
  "userdoc": {
    "kind": "user",
    "methods": {
      "approve(address,uint256)": {
        "notice": "Change or reaffirm the approved address for an NFT"
      },
      "getApproved(uint256)": {
        "notice": "Get the approved address for a single NFT"
      },
      "isApprovedForAll(address,address)": {
        "notice": "Query if an address is an authorized operator for another address"
      },
      "safeTransferFrom(address,address,uint256)": {
        "notice": "Transfers the ownership of an NFT from one address to another address"
      },
      "safeTransferFrom(address,address,uint256,bytes)": {
        "notice": "Transfers the ownership of an NFT from one address to another address"
      },
      "setApprovalForAll(address,bool)": {
        "notice": "Enable or disable approval for a third party (\"operator\") to manage  all of `msg.sender`'s assets"
      },
      "transferFrom(address,address,uint256)": {
        "notice": "Transfer ownership of an NFT -- THE CALLER IS RESPONSIBLE  TO CONFIRM THAT `_to` IS CAPABLE OF RECEIVING NFTS OR ELSE  THEY MAY BE PERMANENTLY LOST"
      }
    },
    "version": 1
  }
}