{
  "contractName": "KittyMarket",
  "abi": [
    {
      "inputs": [
        {
          "internalType": "address",
          "name": "_kittyContractAddress",
          "type": "address"
        }
      ],
      "stateMutability": "nonpayable",
      "type": "constructor"
    },
    {
      "anonymous": false,
      "inputs": [
        {
          "indexed": false,
          "internalType": "string",
          "name": "TxType",
          "type": "string"
        },
        {
          "indexed": false,
          "internalType": "address",
          "name": "owner",
          "type": "address"
        },
        {
          "indexed": false,
          "internalType": "uint256",
          "name": "tokenId",
          "type": "uint256"
        }
      ],
      "name": "MarketTransaction",
      "type": "event"
    },
    {
      "inputs": [
        {
          "internalType": "address",
          "name": "_kittyContractAddress",
          "type": "address"
        }
      ],
      "name": "setKittyContract",
      "outputs": [],
      "stateMutability": "nonpayable",
      "type": "function"
    },
    {
      "inputs": [
        {
          "internalType": "uint256",
          "name": "_tokenId",
          "type": "uint256"
        }
      ],
      "name": "getOffer",
      "outputs": [
        {
          "internalType": "address",
          "name": "seller",
          "type": "address"
        },
        {
          "internalType": "uint256",
          "name": "price",
          "type": "uint256"
        },
        {
          "internalType": "uint256",
          "name": "index",
          "type": "uint256"
        },
        {
          "internalType": "uint256",
          "name": "tokenId",
          "type": "uint256"
        },
        {
          "internalType": "bool",
          "name": "active",
          "type": "bool"
        }
      ],
      "stateMutability": "view",
      "type": "function",
      "constant": true
    },
    {
      "inputs": [],
      "name": "getAllTokenOnSale",
      "outputs": [
        {
          "internalType": "uint256[]",
          "name": "listOfOffers",
          "type": "uint256[]"
        }
      ],
      "stateMutability": "view",
      "type": "function",
      "constant": true
    },
    {
      "inputs": [
        {
          "internalType": "uint256",
          "name": "_price",
          "type": "uint256"
        },
        {
          "internalType": "uint256",
          "name": "_tokenId",
          "type": "uint256"
        }
      ],
      "name": "setOffer",
      "outputs": [],
      "stateMutability": "nonpayable",
      "type": "function"
    },
    {
      "inputs": [
        {
          "internalType": "uint256",
          "name": "_tokenId",
          "type": "uint256"
        }
      ],
      "name": "removeOffer",
      "outputs": [],
      "stateMutability": "nonpayable",
      "type": "function"
    },
    {
      "inputs": [
        {
          "internalType": "uint256",
          "name": "_tokenId",
          "type": "uint256"
        }
      ],
      "name": "buyKitty",
      "outputs": [],
      "stateMutability": "payable",
      "type": "function",
      "payable": true
    }
  ],
  "bytecode": "0x60806040523480156200001157600080fd5b506040516200136a3803806200136a833981810160405281019062000037919062000198565b33600260006101000a81548173ffffffffffffffffffffffffffffffffffffffff021916908373ffffffffffffffffffffffffffffffffffffffff16021790555062000089816200009060201b60201c565b50620001ca565b600260009054906101000a900473ffffffffffffffffffffffffffffffffffffffff1673ffffffffffffffffffffffffffffffffffffffff163373ffffffffffffffffffffffffffffffffffffffff1614620000eb57600080fd5b806000806101000a81548173ffffffffffffffffffffffffffffffffffffffff021916908373ffffffffffffffffffffffffffffffffffffffff16021790555050565b600080fd5b600073ffffffffffffffffffffffffffffffffffffffff82169050919050565b6000620001608262000133565b9050919050565b620001728162000153565b81146200017e57600080fd5b50565b600081519050620001928162000167565b92915050565b600060208284031215620001b157620001b06200012e565b5b6000620001c18482850162000181565b91505092915050565b61119080620001da6000396000f3fe6080604052600436106100555760003560e01c80634579268a1461005a57806349b3709f1461009b57806362b7f94e146100c6578063941b055b146100ef57806395a0f9c714610118578063ae5310f614610141575b600080fd5b34801561006657600080fd5b50610081600480360381019061007c9190610b36565b61015d565b604051610092959493929190610bce565b60405180910390f35b3480156100a757600080fd5b506100b0610202565b6040516100bd9190610cdf565b60405180910390f35b3480156100d257600080fd5b506100ed60048036038101906100e89190610d2d565b610363565b005b3480156100fb57600080fd5b5061011660048036038101906101119190610d5a565b610400565b005b34801561012457600080fd5b5061013f600480360381019061013a9190610b36565b6106e4565b005b61015b60048036038101906101569190610b36565b610851565b005b60008060008060006003600087815260200190815260200160002060000160009054906101000a900473ffffffffffffffffffffffffffffffffffffffff16945060036000878152602001908152602001600020600101549350600360008781526020019081526020016000206002015492508591506003600087815260200190815260200160002060040160009054906101000a900460ff16905091939590929450565b606060006001805490509050600081141561026957600067ffffffffffffffff81111561023257610231610d9a565b5b6040519080825280602002602001820160405280156102605781602001602082028036833780820191505090505b50915050610360565b60008167ffffffffffffffff81111561028557610284610d9a565b5b6040519080825280602002602001820160405280156102b35781602001602082028036833780820191505090505b50905060005b828110156103595760011515600182815481106102d9576102d8610dc9565b5b906000526020600020906005020160040160009054906101000a900460ff1615151415610346576001818154811061031457610313610dc9565b5b90600052602060002090600502016003015482828151811061033957610338610dc9565b5b6020026020010181815250505b808061035190610e27565b9150506102b9565b8193505050505b90565b600260009054906101000a900473ffffffffffffffffffffffffffffffffffffffff1673ffffffffffffffffffffffffffffffffffffffff163373ffffffffffffffffffffffffffffffffffffffff16146103bd57600080fd5b806000806101000a81548173ffffffffffffffffffffffffffffffffffffffff021916908373ffffffffffffffffffffffffffffffffffffffff16021790555050565b6001151560008054906101000a900473ffffffffffffffffffffffffffffffffffffffff1673ffffffffffffffffffffffffffffffffffffffff1663e327a6af33846040518363ffffffff1660e01b815260040161045f929190610e70565b60206040518083038186803b15801561047757600080fd5b505afa15801561048b573d6000803e3d6000fd5b505050506040513d601f19601f820116820180604052508101906104af9190610ec5565b1515146104bb57600080fd5b600015156003600083815260200190815260200160002060040160009054906101000a900460ff161515146104ef57600080fd5b6001151560008054906101000a900473ffffffffffffffffffffffffffffffffffffffff1673ffffffffffffffffffffffffffffffffffffffff1663e985e9c533306040518363ffffffff1660e01b815260040161054e929190610ef2565b60206040518083038186803b15801561056657600080fd5b505afa15801561057a573d6000803e3d6000fd5b505050506040513d601f19601f8201168201806040525081019061059e9190610ec5565b1515146105aa57600080fd5b60006040518060a001604052803373ffffffffffffffffffffffffffffffffffffffff1681526020018481526020016001805490508152602001838152602001600115158152509050600181908060018154018082558091505060019003906000526020600020906005020160009091909190915060008201518160000160006101000a81548173ffffffffffffffffffffffffffffffffffffffff021916908373ffffffffffffffffffffffffffffffffffffffff16021790555060208201518160010155604082015181600201556060820151816003015560808201518160040160006101000a81548160ff02191690831515021790555050507fd99e4fad9ad6313b1feb588fa8e605e3a9873172f2024330c35dd2b4041a438633836040516106d7929190610f78565b60405180910390a1505050565b3373ffffffffffffffffffffffffffffffffffffffff166003600083815260200190815260200160002060000160009054906101000a900473ffffffffffffffffffffffffffffffffffffffff1673ffffffffffffffffffffffffffffffffffffffff161461075257600080fd5b60006003600083815260200190815260200160002060020154905060036000838152602001908152602001600020600080820160006101000a81549073ffffffffffffffffffffffffffffffffffffffff02191690556001820160009055600282016000905560038201600090556004820160006101000a81549060ff021916905550506000600182815481106107ec576107eb610dc9565b5b906000526020600020906005020160040160006101000a81548160ff0219169083151502179055507fd99e4fad9ad6313b1feb588fa8e605e3a9873172f2024330c35dd2b4041a43863383604051610845929190611000565b60405180910390a15050565b6000600360008381526020019081526020016000206040518060a00160405290816000820160009054906101000a900473ffffffffffffffffffffffffffffffffffffffff1673ffffffffffffffffffffffffffffffffffffffff1673ffffffffffffffffffffffffffffffffffffffff1681526020016001820154815260200160028201548152602001600382015481526020016004820160009054906101000a900460ff161515151581525050905060011515816080015115151461091757600080fd5b8060200151341461092757600080fd5b60036000838152602001908152602001600020600080820160006101000a81549073ffffffffffffffffffffffffffffffffffffffff02191690556001820160009055600282016000905560038201600090556004820160006101000a81549060ff02191690555050600060018260400151815481106109aa576109a9610dc9565b5b906000526020600020906005020160040160006101000a81548160ff021916908315150217905550600081602001511115610a2b57806000015173ffffffffffffffffffffffffffffffffffffffff166108fc349081150290604051600060405180830381858888f19350505050158015610a29573d6000803e3d6000fd5b505b60008054906101000a900473ffffffffffffffffffffffffffffffffffffffff1673ffffffffffffffffffffffffffffffffffffffff166323b872dd826000015133856040518463ffffffff1660e01b8152600401610a8c9392919061109b565b600060405180830381600087803b158015610aa657600080fd5b505af1158015610aba573d6000803e3d6000fd5b505050507fd99e4fad9ad6313b1feb588fa8e605e3a9873172f2024330c35dd2b4041a43863383604051610aef92919061111e565b60405180910390a15050565b600080fd5b6000819050919050565b610b1381610b00565b8114610b1e57600080fd5b50565b600081359050610b3081610b0a565b92915050565b600060208284031215610b4c57610b4b610afb565b5b6000610b5a84828501610b21565b91505092915050565b600073ffffffffffffffffffffffffffffffffffffffff82169050919050565b6000610b8e82610b63565b9050919050565b610b9e81610b83565b82525050565b610bad81610b00565b82525050565b60008115159050919050565b610bc881610bb3565b82525050565b600060a082019050610be36000830188610b95565b610bf06020830187610ba4565b610bfd6040830186610ba4565b610c0a6060830185610ba4565b610c176080830184610bbf565b9695505050505050565b600081519050919050565b600082825260208201905092915050565b6000819050602082019050919050565b610c5681610b00565b82525050565b6000610c688383610c4d565b60208301905092915050565b6000602082019050919050565b6000610c8c82610c21565b610c968185610c2c565b9350610ca183610c3d565b8060005b83811015610cd2578151610cb98882610c5c565b9750610cc483610c74565b925050600181019050610ca5565b5085935050505092915050565b60006020820190508181036000830152610cf98184610c81565b905092915050565b610d0a81610b83565b8114610d1557600080fd5b50565b600081359050610d2781610d01565b92915050565b600060208284031215610d4357610d42610afb565b5b6000610d5184828501610d18565b91505092915050565b60008060408385031215610d7157610d70610afb565b5b6000610d7f85828601610b21565b9250506020610d9085828601610b21565b9150509250929050565b7f4e487b7100000000000000000000000000000000000000000000000000000000600052604160045260246000fd5b7f4e487b7100000000000000000000000000000000000000000000000000000000600052603260045260246000fd5b7f4e487b7100000000000000000000000000000000000000000000000000000000600052601160045260246000fd5b6000610e3282610b00565b91507fffffffffffffffffffffffffffffffffffffffffffffffffffffffffffffffff821415610e6557610e64610df8565b5b600182019050919050565b6000604082019050610e856000830185610b95565b610e926020830184610ba4565b9392505050565b610ea281610bb3565b8114610ead57600080fd5b50565b600081519050610ebf81610e99565b92915050565b600060208284031215610edb57610eda610afb565b5b6000610ee984828501610eb0565b91505092915050565b6000604082019050610f076000830185610b95565b610f146020830184610b95565b9392505050565b600082825260208201905092915050565b7f437265617465206f666665720000000000000000000000000000000000000000600082015250565b6000610f62600c83610f1b565b9150610f6d82610f2c565b602082019050919050565b60006060820190508181036000830152610f9181610f55565b9050610fa06020830185610b95565b610fad6040830184610ba4565b9392505050565b7f52656d6f7665206f666665720000000000000000000000000000000000000000600082015250565b6000610fea600c83610f1b565b9150610ff582610fb4565b602082019050919050565b6000606082019050818103600083015261101981610fdd565b90506110286020830185610b95565b6110356040830184610ba4565b9392505050565b6000819050919050565b600061106161105c61105784610b63565b61103c565b610b63565b9050919050565b600061107382611046565b9050919050565b600061108582611068565b9050919050565b6110958161107a565b82525050565b60006060820190506110b0600083018661108c565b6110bd6020830185610b95565b6110ca6040830184610ba4565b949350505050565b7f4275790000000000000000000000000000000000000000000000000000000000600082015250565b6000611108600383610f1b565b9150611113826110d2565b602082019050919050565b60006060820190508181036000830152611137816110fb565b90506111466020830185610b95565b6111536040830184610ba4565b939250505056fea264697066735822122047ecaf93ad95a4233ee1a30f35d769ef54c9e2ead8a6059aed29586d9f222b9d64736f6c63430008090033",
  "immutableReferences": {},
  "source": "// SPDX-License-Identifier: MIT\npragma solidity ^0.8.0;\n\nimport \"./KittyContract.sol\";\nimport './IKittyMarketplace.sol';\n\ncontract KittyMarket is IKittyMarketPlace {\n    //need to initialize address in setKittyContract\n    Kitty private _kittyContract;\n\n    struct Offer {\n        address payable seller;\n        uint256 price;\n        uint256 index;\n        uint256 tokenId;\n        bool active;\n    }\n\n    Offer[] offers; \n    address private owner;\n\n    mapping(uint256 => Offer) tokenIdToOffer;\n\n    constructor(address _kittyContractAddress){\n        owner = msg.sender;\n        setKittyContract(_kittyContractAddress);\n    }\n\n    modifier onlyOwner(){\n        require(msg.sender == owner);\n        _;\n    }\n\n    function setKittyContract(address _kittyContractAddress) public onlyOwner {\n        _kittyContract = Kitty(_kittyContractAddress);\n    }\n\n    function getOffer(uint256 _tokenId) external view returns ( address seller, uint256 price, uint256 index, uint256 tokenId, bool active){\n        seller = tokenIdToOffer[_tokenId].seller;\n        price = tokenIdToOffer[_tokenId].price;\n        index = tokenIdToOffer[_tokenId].index;\n        tokenId = _tokenId;\n        active = tokenIdToOffer[_tokenId].active;\n\n        return (seller, price, index, tokenId, active); \n    }\n\n    function getAllTokenOnSale() external view  returns(uint256[] memory listOfOffers){\n        uint256 numberOfOffers = offers.length;\n        if(numberOfOffers == 0){\n            return new uint256[](0);\n        } else {\n            uint256[] memory result = new uint256[](numberOfOffers);\n            uint256 offerId;\n            for(offerId = 0; offerId < numberOfOffers; offerId++){\n                if(offers[offerId].active == true){\n                    result[offerId] = offers[offerId].tokenId;\n                }\n            }\n            return result;\n        }\n    }\n\n    function setOffer(uint256 _price, uint256 _tokenId) external {\n        require(_kittyContract.isOwner(msg.sender, _tokenId) == true);\n        require(tokenIdToOffer[_tokenId].active == false);\n        require(_kittyContract.isApprovedForAll(msg.sender, address(this)) == true);\n        Offer memory newOffer = Offer({seller: payable(msg.sender), price: _price, index: offers.length, tokenId: _tokenId, active: true});\n        offers.push(newOffer);\n        emit MarketTransaction(\"Create offer\", msg.sender, _tokenId);\n    }\n\n    function removeOffer(uint256 _tokenId) external{\n        require(tokenIdToOffer[_tokenId].seller == msg.sender);\n        uint256 tokenIndex = tokenIdToOffer[_tokenId].index;\n        delete tokenIdToOffer[_tokenId];\n        offers[tokenIndex].active = false;\n        emit MarketTransaction(\"Remove offer\", msg.sender, _tokenId);\n    }\n\n    function buyKitty(uint256 _tokenId) external payable{\n        Offer memory _offer = tokenIdToOffer[_tokenId];\n        require(_offer.active == true);\n        require(msg.value == _offer.price);\n        delete tokenIdToOffer[_tokenId];\n        offers[_offer.index].active = false;\n\n        if(_offer.price > 0){\n            _offer.seller.transfer(msg.value);\n        }\n        _kittyContract.transferFrom(_offer.seller, msg.sender, _tokenId);\n        emit MarketTransaction(\"Buy\", msg.sender, _tokenId);\n    }\n}\n",
  "sourcePath": "/Users/danieljoseph/Documents/GitHub/academy-kitties/contracts/KittyMarketplace.sol",
  "compiler": {
    "name": "solc",
    "version": "0.8.9+commit.e5eed63a.Emscripten.clang"
  },
  "schemaVersion": "3.4.3",
  "updatedAt": "2021-10-17T12:19:41.335Z",
  "networkType": "ethereum",
  "devdoc": {
    "kind": "dev",
    "methods": {},
    "version": 1
  },
  "userdoc": {
    "kind": "user",
    "methods": {
      "buyKitty(uint256)": {
        "notice": "Executes the purchase of _tokenId. Sends the funds to the seller and transfers the token using transferFrom in Kittycontract. Emits the MarketTransaction event with txType \"Buy\". Requirement: The msg.value needs to equal the price of _tokenId Requirement: There must be an active offer for _tokenId"
      },
      "getAllTokenOnSale()": {
        "notice": "Get all tokenId's that are currently for sale. Returns an empty arror if none exist."
      },
      "getOffer(uint256)": {
        "notice": "Get the details about a offer for _tokenId. Throws an error if there is no active offer for _tokenId."
      },
      "removeOffer(uint256)": {
        "notice": "Removes an existing offer. Emits the MarketTransaction event with txType \"Remove offer\" Requirement: Only the seller of _tokenId can remove an offer."
      },
      "setKittyContract(address)": {
        "notice": "Set the current KittyContract address and initialize the instance of Kittycontract. Requirement: Only the contract owner can call."
      },
      "setOffer(uint256,uint256)": {
        "notice": "Creates a new offer for _tokenId for the price _price. Emits the MarketTransaction event with txType \"Create offer\" Requirement: Only the owner of _tokenId can create an offer. Requirement: There can only be one active offer for a token at a time. Requirement: Marketplace contract (this) needs to be an approved operator when the offer is created."
      }
    },
    "version": 1
  }
}